{
  "contractName": "Election",
  "abi": [
    {
      "inputs": [],
      "payable": false,
      "stateMutability": "nonpayable",
      "type": "constructor"
    },
    {
      "constant": true,
      "inputs": [],
      "name": "candidate",
      "outputs": [
        {
          "internalType": "string",
          "name": "",
          "type": "string"
        }
      ],
      "payable": false,
      "stateMutability": "view",
      "type": "function"
    },
    {
      "constant": true,
      "inputs": [],
      "name": "candidateCount",
      "outputs": [
        {
          "internalType": "uint256",
          "name": "",
          "type": "uint256"
        }
      ],
      "payable": false,
      "stateMutability": "view",
      "type": "function"
    },
    {
      "constant": true,
      "inputs": [
        {
          "internalType": "uint256",
          "name": "",
          "type": "uint256"
        }
      ],
      "name": "candidates",
      "outputs": [
        {
          "internalType": "uint256",
          "name": "id",
          "type": "uint256"
        },
        {
          "internalType": "string",
          "name": "name",
          "type": "string"
        },
        {
          "internalType": "uint256",
          "name": "voteCount",
          "type": "uint256"
        }
      ],
      "payable": false,
      "stateMutability": "view",
      "type": "function"
    }
  ],
  "bytecode": "0x608060405234801561001057600080fd5b506100556040518060400160405280600281526020017f4a4a0000000000000000000000000000000000000000000000000000000000008152506100e260201b60201c565b6100996040518060400160405280600281526020017f51510000000000000000000000000000000000000000000000000000000000008152506100e260201b60201c565b6100dd6040518060400160405280600281526020017f54540000000000000000000000000000000000000000000000000000000000008152506100e260201b60201c565b61022f565b6001600081548092919060010191905055506100fc610169565b604051806060016040528060015481526020018381526020016000815250905080600080600154815260200190815260200160002060008201518160000155602082015181600101908051906020019061015792919061018a565b50604082015181600201559050505050565b60405180606001604052806000815260200160608152602001600081525090565b828054600181600116156101000203166002900490600052602060002090601f016020900481019282601f106101cb57805160ff19168380011785556101f9565b828001600101855582156101f9579182015b828111156101f85782518255916020019190600101906101dd565b5b509050610206919061020a565b5090565b61022c91905b80821115610228576000816000905550600101610210565b5090565b90565b6103378061023e6000396000f3fe608060405234801561001057600080fd5b50600436106100415760003560e01c80633477ee2e146100465780636c8381f8146100fb578063a9a981a31461017e575b600080fd5b6100726004803603602081101561005c57600080fd5b810190808035906020019092919050505061019c565b6040518084815260200180602001838152602001828103825284818151815260200191508051906020019080838360005b838110156100be5780820151818401526020810190506100a3565b50505050905090810190601f1680156100eb5780820380516001836020036101000a031916815260200191505b5094505050505060405180910390f35b61010361025e565b6040518080602001828103825283818151815260200191508051906020019080838360005b83811015610143578082015181840152602081019050610128565b50505050905090810190601f1680156101705780820380516001836020036101000a031916815260200191505b509250505060405180910390f35b6101866102fc565b6040518082815260200191505060405180910390f35b6000602052806000526040600020600091509050806000015490806001018054600181600116156101000203166002900480601f01602080910402602001604051908101604052809291908181526020018280546001816001161561010002031660029004801561024e5780601f106102235761010080835404028352916020019161024e565b820191906000526020600020905b81548152906001019060200180831161023157829003601f168201915b5050505050908060020154905083565b60028054600181600116156101000203166002900480601f0160208091040260200160405190810160405280929190818152602001828054600181600116156101000203166002900480156102f45780601f106102c9576101008083540402835291602001916102f4565b820191906000526020600020905b8154815290600101906020018083116102d757829003601f168201915b505050505081565b6001548156fea265627a7a72315820d9915e4d7244f7930f10bf11221fd34bc02f516dd946b8f2a3344c52ebb246df64736f6c63430005100032",
  "source": "// SPDX-License-Identifier: MIT\r\npragma solidity ^0.5.16;\r\n\r\ncontract Election {\r\n\r\nstruct Candidate {\r\n    uint id;\r\n    string name;\r\n    uint voteCount;\r\n}\r\n\r\nmapping(uint=>Candidate) public candidates;\r\nuint public candidateCount;\r\n\r\nstring public candidate;\r\n\r\n    constructor() public {\r\n        addCandidate(\"JJ\");\r\n        addCandidate(\"QQ\");\r\n        addCandidate(\"TT\");\r\n    }\r\n\r\n    function addCandidate(string memory _name) private {\r\n        candidateCount++;\r\n        Candidate memory _newCandidate = Candidate(candidateCount, _name, 0);\r\n        candidates[candidateCount] = _newCandidate;\r\n    }\r\n}",
  "sourcePath": "C:\\Users\\Jacus\\EthProjs\\Election\\contracts\\Election.sol",
  "compiler": {
    "name": "solc",
    "version": "0.5.16+commit.9c3226ce.Emscripten.clang"
  },
  "schemaVersion": "3.4.8",
  "updatedAt": "2022-07-15T07:05:20.446Z",
  "networkType": "ethereum",
  "devdoc": {
    "methods": {}
  },
  "userdoc": {
    "methods": {}
  }
}